:020000020000FC
:02000000FFC03F
:02005400EDC0FD
:100200000FEF04B90AB912E410937C001FEC1093AD
:100210007A0078947BD011D5A0E1B2E0A8D0443622
:1002200030F000D0493610F000D017D548D57DD534
:100230004091780050917900550F550F550F550F8B
:10024000550F550F469546951FE34123452B1895AD
:100250007F938F939F9372E58BE29CEF9A95F1F7D2
:100260008A95E1F77A95D1F700009F918F917F9160
:1002700008957F938F939F9379E08EE190EE9A9506
:10028000F1F78A95E1F77A95D1F700009F918F9168
:100290007F9108957F938F9370ED86EC8A95F1F7A7
:1002A0007A95E1F700008F917F9108957F938F9366
:1002B00075E183EC8A95F1F77A95E1F78F917F915B
:1002C000089500E50CBD0DB50EB500E00DBD089517
:1002D00000E40CBD0DB50EB500E00DBD08951EBDCA
:1002E0000DB507FFFDCF0EB508950EBD0DB507FF87
:1002F000FDCF1EB508951EBD0DB507FFFDCF0EB590
:1003000008950DB507FFFDCF1EB50895DADF0FE2A2
:1003100004B900E005B9299AC9DF2998C7DF299AED
:10032000C5DFE2E9F3E015911F3F11F002D0FBCFEA
:1003300008952A982898D3DF2A9A08952A98289A07
:10034000CEDF2A9A089509D001D0089511E2F1DF95
:10035000122FEFDF1FE7EDDF089512E2EADF369597
:1003600036953695132FE5DF17E0E3DF08952F93D9
:100370003F9322273327383048F4203820F41D914A
:10038000DDDF2395FACF22273395F5CF3F912F91CB
:100390000895AED580A83FD300408D142000A1C899
:1003A000DA1281CFD9F1DB40A4A62EAFFFFF000007
:1003B0000000000000007E8195B1B195817E7EFF36
:1003C000EBCFCFEBFF7E0E1F3F7E3F1F0E00081CC2
:1003D0003E7F3E1C080018185B6F6F5B1818181CD6
:1003E0005E6F5E1C18000000183C3C180000FFFF08
:1003F000E7C3C3E7FFFF003C664242663C00FFC321
:1004000099BDBD99C3FF70F88888FD7F070F004E26
:100410005FF1F15F4E00406060603F020C002030F1
:10042000309FC5CA7C00082A1C771C2A08007F3E22
:100430003E1C1C08080008081C1C3E3E7F000014DF
:10044000227F7F221400005F5F00005F5F000E1FAD
:10045000117F7F017F7F4098A6A56519020000707B
:100460007070707070000094A2FFFFA294000004EE
:10047000027F7F0204000010207F7F201000080808
:10048000082A3E1C0800081C3E2A080808003C3CBC
:10049000202020202000081C2A08082A1C083038A8
:1004A0003C3E3C383000060E1E3E1E0E060000008C
:1004B0000000000000000000065F5F060000000171
:1004C000070001070000147F7F147F7F1400242E93
:1004D0002A7F2A3A10004C6A36186C563200307A5D
:1004E0004D4D7F3250000000050300000000001C4D
:1004F0003E63410000000041633E1C000000082AEA
:100500003E1C1C3E2A0808083E3E08080000000069
:10051000A0600000000008080808080800000000AB
:10052000404000000000406030180C0603003E7F91
:10053000794D477F3E000044467F7F404000627314
:100540005159496F660022634949497F3600181C9A
:1005500016537F7F500027674545457D39003E7F14
:100560004949497B3200030371790D070300367F47
:100570004949497F3600266F4949497F3E000000BE
:100580002222000000000000A2620000000000081B
:100590001C3663410000002424242424240000414C
:1005A00063361C080000020351590F0600003E414B
:1005B0004955555D1E007E7F0909097F7E00417FF8
:1005C0007F49497F36003E7F414141632200417FA0
:1005D0007F41417F3E00417F7F495D416300417F14
:1005E0007F491D0103003E7F4141517776007F7FA7
:1005F0000808087F7F000000417F7F4100003070C5
:1006000040417F3F0100417F7F081C776300417FAD
:100610007F41406070007F7E0C180C7E7F007F7FE2
:10062000060C187F7F003E7F4141417F3E00417FA5
:100630007F49090F06003E7F417161FFBE00417F87
:100640007F09097F7600266F4949497B3200000700
:10065000417F7F4107003F7F4040407F3F000F1FA9
:100660003060301F0F007F3F180C183F7F00416340
:100670003E1C3E63410000074F78784F07004763F8
:1006800071594D677300007F7F41410000000103F5
:10069000060C183060000041417F7F000000080C0C
:1006A0000603060C08008080808080808080000027
:1006B000030500000000207454543C784000017F82
:1006C0007F4848783000387C4444446C28003078B7
:1006D00048493F7F4000387C5454545C180000481F
:1006E0007E7F4903020018BCA4A4F87C0400417F6B
:1006F0007F08047C78000000447D7D40000040C0FD
:100700008088FA7A0000417F7F10386C4400000036
:10071000417F7F4000007C7C08780C7C7800047C62
:100720007804047C7800387C4444447C380084FCA1
:10073000F8A4243C1800183C24A4FCFC8000447C51
:10074000784C040C0C00085C5454547420000404CD
:100750003E7F442400003C7C40403C7C40000C1C1C
:100760003060301C0C003C7C6038607C3C00446C89
:100770003810386C44009CBCA0A0FC7C00004C6489
:10078000745C4C6400000000083E774141000000AA
:100790000077770000004141773E08000000020327
:1007A00001030203010070784C464C7870001EBFB4
:1007B000A1E1613312003D7D40403D7D4000387C29
:1007C0005456555D1900227155553D7942002175E9
:1007D00054543D794000217555563C7840002074B2
:1007E00057573C78400018BCA4E4642400003A7DCC
:1007F0005555555D1A00397D5454545D1900397DA5
:100800005556545C18000001457C7C4101000201F2
:10081000457D7D4102000101457E7C400000797DDF
:100820001414147D7900787C1717177C7800447CA9
:100830007C56554545002074547C545458007E7FA6
:1008400009097F4949003A7D4545457D3A00397D92
:100850004444447D3900397D4546447C38003E7D22
:1008600041413D7D42003D7D41423C7C40009DBD7B
:10087000A0A0FD7D00003D7F4242427F3D003D7DC6
:100880004040407D3D001C3E227F63361400687E60
:100890003F694342200000292B7E7E2B29007F7F69
:1008A000052577FAA00040C088FE7F090302207466
:1008B00054563D7941000000447E7D410100387C62
:1008C0004446457D39003C7C40423D7D4100067DEB
:1008D0007906067D79007E7D0D1A327D7D0000202F
:1008E0002D2D272E200000262F292F2600003078BE
:1008F0004D454070300038380808080800000808E6
:100900000808383800002F1F084C6A7858002F1F3D
:1009100028347A7820000000307D7D300000081CEB
:10092000362A1C36220022361C2A361C0800AA0051
:100930005500AA005500AA55AA55AA55AA55DDFF8B
:10094000AA77DDAAFF77000000FFFF00000010106B
:1009500010FFFF000000141414FFFF00000010102F
:10096000FFFF00FFFF001010F0F010F0F000141473
:1009700014FCFC0000001414F7F700FFFF00000057
:10098000FFFF00FFFF001414F4F404FCFC00141437
:100990001717101F1F0010101F1F101F1F00141407
:1009A000141F1F000000101010F0F00000000000E5
:1009B000001F1F1010101010101F1F10101010100B
:1009C00010F0F0101010000000FFFF1010101010B9
:1009D000101010101010101010FFFF101010000059
:1009E00000FFFF1414140000FFFF00FFFF100000C1
:1009F0001F1F101717140000FCFC04F4F414141447
:100A00001717101717141414F4F404F4F414000056
:100A1000FFFF00F7F714141414141414141414140E
:100A2000F7F700F7F7141414141717141414101010
:100A30001F1F101F1F10141414F4F414141410109A
:100A4000F0F010F0F01000001F1F101F1F1000002A
:100A5000001F1F141414000000FCFC1414140000E8
:100A6000F0F010F0F0101010FFFF10FFFF10141442
:100A700014FFFF1414141010101F1F0000000000BA
:100A800000F0F0101010FFFFFFFFFFFFFFFFF0F07E
:100A9000F0F0F0F0F0F0FFFFFFFF000000000000BA
:100AA0000000FFFFFFFF0F0F0F0F0F0F0F0F387C1E
:100AB0004464386C40007EFF01454F7A3000417F2E
:100AC0007F4101010300087C3C047C3C060041633B
:100AD000775D49416300387C444C34040400FC7C5D
:100AE00040407C3C0000080C047C3C040400183CA2
:100AF000A5FFA53C18003E7F4949497F3E004E5F57
:100B00007101715F4E0030784B4D7D390200182421
:100B10002418182424185874343C2C2E1A00387CBD
:100B20005454544400007C7E0202027E7C002A2A37
:100B30002A2A2A2A2A000044445F5F4444000040D5
:100B4000515B4E44000000444E5B514000000000E9
:100B500000FEFF01070660E080FF7F000000000844
:100B6000082A2A0808002436123624361200000209
:100B70000705070200000000001818000000000030
:100B8000001010000000103070407F7F0101010F45
:100B90000E010F0E00000D0D0B0B000000000000F9
:100BA0003C3C3C3C000000000000000000000F92B4
:100BB0001F920F931F93A0E1B2E0032F077040E84C
:100BC000003019F00A954695FBCF032F0695069540
:100BD000069510E8019F020E08F41394A00DB11DB4
:100BE0001F910F911F900F9008950F931F9300274F
:100BF00011271D930395083009F0FBCF1F910F912A
:100C000008950F931F930027C0E0D2E019911D9320
:100C10000395083009F0FACF1F910F9108950F93B3
:100C20001F930027C0E0D2E0159119930395083077
:100C300009F0FACF1F910F9108951127222733272A
:100C4000A0E1B2E0383040F4203818F41D93239529
:100C5000FBCF22273395F6CF0895EEE4F6E0DFDFF1
:100C600020E030E0A4DFCDDFA0E1B2E080DBE6E20F
:100C7000F6E0D5DF28E030E09ADFC3DFE6E2F6E019
:100C8000CEDF20E130E093DFBCDFEEEEF5E0C7DF42
:100C900020E230E08CDFB5DFE6E2F6E0C0DF28E2FC
:100CA00030E085DFAEDFEEE4F6E0B9DF20E330E0F0
:100CB0007EDFA7DFA0E1B2E05ADBCADAA1CAEEE22A
:100CC000F6E0ADDF20E038E172DF9BDFE6EDF5E036
:100CD000A6DF28E038E16BDF94DFEEE3F6E09FDF8C
:100CE00020E138E164DF8DDFEEEDF5E098DF28E10B
:100CF00038E15DDF86DFE6EDF5E091DF20E238E107
:100D000056DF7FDFE6ECF5E08ADF28E238E14FDFEF
:100D100078DFEEE4F6E083DF20E338E148DF71DFDF
:100D2000A0E1B2E024DB94DA6BCAE6E6F6E077DF16
:100D300020E030E33CDF65DFE6EDF5E070DF28E042
:100D400030E335DF5EDFE6EBF5E069DF20E130E33D
:100D50002EDF57DFEEE3F6E062DF28E130E327DF46
:100D600050DFE6E1F6E05BDF28E230E320DF49DF39
:100D7000E6E2F6E054DF20E330E319DF42DFEEE3A2
:100D8000F6E04DDF28E330E312DF3BDFE6EDF5E090
:100D900046DF20E430E30BDF34DFE6ECF5E03FDF55
:100DA00020E530E304DF2DDFEEE0F6E038DF28E574
:100DB00030E3FDDE26DFE6E2F6E031DF20E630E379
:100DC000F6DE1FDFEEE4F6E02ADF28E630E3EFDEB2
:100DD00018DFEEEEF5E023DF20E730E3E8DE11DF99
:100DE000E6EDF5E01CDF28E730E3E1DE0ADFE6E4CC
:100DF000F6E015DF20E038E3DADE03DFA0E1B2E061
:060E0000B6DA26DAFDC996
:00000001FF
